{"contracts/PlayerStats.sol":{"PlayerStats":{"abi":[{"inputs":[],"stateMutability":"nonpayable","type":"constructor"},{"inputs":[{"internalType":"address","name":"player","type":"address"}],"name":"getPlayerStats","outputs":[{"components":[{"internalType":"uint256","name":"totalScore","type":"uint256"},{"internalType":"uint256","name":"targetsHit","type":"uint256"},{"internalType":"uint256","name":"gamesPlayed","type":"uint256"},{"internalType":"uint256","name":"highestScore","type":"uint256"},{"internalType":"uint256","name":"lastPlayed","type":"uint256"}],"internalType":"struct PlayerStats.Stats","name":"","type":"tuple"}],"stateMutability":"view","type":"function"},{"inputs":[{"internalType":"address","name":"","type":"address"}],"name":"playerStats","outputs":[{"internalType":"uint256","name":"totalScore","type":"uint256"},{"internalType":"uint256","name":"targetsHit","type":"uint256"},{"internalType":"uint256","name":"gamesPlayed","type":"uint256"},{"internalType":"uint256","name":"highestScore","type":"uint256"},{"internalType":"uint256","name":"lastPlayed","type":"uint256"}],"stateMutability":"view","type":"function"},{"inputs":[{"internalType":"address","name":"gameAdmin","type":"address"}],"name":"setGameAdmin","outputs":[],"stateMutability":"nonpayable","type":"function"},{"inputs":[{"internalType":"address","name":"player","type":"address"},{"internalType":"uint256","name":"sessionScore","type":"uint256"},{"internalType":"uint256","name":"sessionHits","type":"uint256"}],"name":"updateStats","outputs":[],"stateMutability":"nonpayable","type":"function"}],"evm":{"bytecode":{"linkReferences":{},"object":"608060405234801561001057600080fd5b5033600160006101000a81548173ffffffffffffffffffffffffffffffffffffffff021916908373ffffffffffffffffffffffffffffffffffffffff1602179055506107d4806100616000396000f3fe608060405234801561001057600080fd5b506004361061004c5760003560e01c8063429d853314610051578063460cd1ed1461006d5780634fd66eae14610089578063cdafbbb6146100b9575b600080fd5b61006b6004803603810190610066919061045c565b6100ed565b005b610087600480360381019061008291906104bf565b6101c1565b005b6100a3600480360381019061009e919061045c565b61030a565b6040516100b09190610589565b60405180910390f35b6100d360048036038101906100ce919061045c565b610394565b6040516100e49594939291906105b3565b60405180910390f35b600160009054906101000a900473ffffffffffffffffffffffffffffffffffffffff1673ffffffffffffffffffffffffffffffffffffffff163373ffffffffffffffffffffffffffffffffffffffff161461017d576040517f08c379a000000000000000000000000000000000000000000000000000000000815260040161017490610689565b60405180910390fd5b80600160006101000a81548173ffffffffffffffffffffffffffffffffffffffff021916908373ffffffffffffffffffffffffffffffffffffffff16021790555050565b600160009054906101000a900473ffffffffffffffffffffffffffffffffffffffff1673ffffffffffffffffffffffffffffffffffffffff163373ffffffffffffffffffffffffffffffffffffffff1614610251576040517f08c379a00000000000000000000000000000000000000000000000000000000081526004016102489061071b565b60405180910390fd5b60008060008573ffffffffffffffffffffffffffffffffffffffff1673ffffffffffffffffffffffffffffffffffffffff1681526020019081526020016000209050828160000160008282546102a7919061076a565b92505081905550818160010160008282546102c2919061076a565b9250508190555060018160020160008282546102de919061076a565b9250508190555080600301548311156102fb578281600301819055505b42816004018190555050505050565b6103126103ca565b6000808373ffffffffffffffffffffffffffffffffffffffff1673ffffffffffffffffffffffffffffffffffffffff1681526020019081526020016000206040518060a0016040529081600082015481526020016001820154815260200160028201548152602001600382015481526020016004820154815250509050919050565b60006020528060005260406000206000915090508060000154908060010154908060020154908060030154908060040154905085565b6040518060a0016040528060008152602001600081526020016000815260200160008152602001600081525090565b600080fd5b600073ffffffffffffffffffffffffffffffffffffffff82169050919050565b6000610429826103fe565b9050919050565b6104398161041e565b811461044457600080fd5b50565b60008135905061045681610430565b92915050565b600060208284031215610472576104716103f9565b5b600061048084828501610447565b91505092915050565b6000819050919050565b61049c81610489565b81146104a757600080fd5b50565b6000813590506104b981610493565b92915050565b6000806000606084860312156104d8576104d76103f9565b5b60006104e686828701610447565b93505060206104f7868287016104aa565b9250506040610508868287016104aa565b9150509250925092565b61051b81610489565b82525050565b60a0820160008201516105376000850182610512565b50602082015161054a6020850182610512565b50604082015161055d6040850182610512565b5060608201516105706060850182610512565b5060808201516105836080850182610512565b50505050565b600060a08201905061059e6000830184610521565b92915050565b6105ad81610489565b82525050565b600060a0820190506105c860008301886105a4565b6105d560208301876105a4565b6105e260408301866105a4565b6105ef60608301856105a4565b6105fc60808301846105a4565b9695505050505050565b600082825260208201905092915050565b7f4f6e6c792063757272656e742061646d696e2063616e20736574206e6577206160008201527f646d696e00000000000000000000000000000000000000000000000000000000602082015250565b6000610673602483610606565b915061067e82610617565b604082019050919050565b600060208201905081810360008301526106a281610666565b9050919050565b7f4f6e6c792067616d652061646d696e2063616e20706572666f726d207468697360008201527f20616374696f6e00000000000000000000000000000000000000000000000000602082015250565b6000610705602783610606565b9150610710826106a9565b604082019050919050565b60006020820190508181036000830152610734816106f8565b9050919050565b7f4e487b7100000000000000000000000000000000000000000000000000000000600052601160045260246000fd5b600061077582610489565b915061078083610489565b92508282019050808211156107985761079761073b565b5b9291505056fea26469706673582212206f33fdf02a36f34073f5f428bd36c985db60aff4329ec9d012feb4a1f524e75264736f6c63430008110033","opcodes":"PUSH1 0x80 PUSH1 0x40 MSTORE CALLVALUE DUP1 ISZERO PUSH2 0x10 JUMPI PUSH1 0x0 DUP1 REVERT JUMPDEST POP CALLER PUSH1 0x1 PUSH1 0x0 PUSH2 0x100 EXP DUP2 SLOAD DUP2 PUSH20 0xFFFFFFFFFFFFFFFFFFFFFFFFFFFFFFFFFFFFFFFF MUL NOT AND SWAP1 DUP4 PUSH20 0xFFFFFFFFFFFFFFFFFFFFFFFFFFFFFFFFFFFFFFFF AND MUL OR SWAP1 SSTORE POP PUSH2 0x7D4 DUP1 PUSH2 0x61 PUSH1 0x0 CODECOPY PUSH1 0x0 RETURN INVALID PUSH1 0x80 PUSH1 0x40 MSTORE CALLVALUE DUP1 ISZERO PUSH2 0x10 JUMPI PUSH1 0x0 DUP1 REVERT JUMPDEST POP PUSH1 0x4 CALLDATASIZE LT PUSH2 0x4C JUMPI PUSH1 0x0 CALLDATALOAD PUSH1 0xE0 SHR DUP1 PUSH4 0x429D8533 EQ PUSH2 0x51 JUMPI DUP1 PUSH4 0x460CD1ED EQ PUSH2 0x6D JUMPI DUP1 PUSH4 0x4FD66EAE EQ PUSH2 0x89 JUMPI DUP1 PUSH4 0xCDAFBBB6 EQ PUSH2 0xB9 JUMPI JUMPDEST PUSH1 0x0 DUP1 REVERT JUMPDEST PUSH2 0x6B PUSH1 0x4 DUP1 CALLDATASIZE SUB DUP2 ADD SWAP1 PUSH2 0x66 SWAP2 SWAP1 PUSH2 0x45C JUMP JUMPDEST PUSH2 0xED JUMP JUMPDEST STOP JUMPDEST PUSH2 0x87 PUSH1 0x4 DUP1 CALLDATASIZE SUB DUP2 ADD SWAP1 PUSH2 0x82 SWAP2 SWAP1 PUSH2 0x4BF JUMP JUMPDEST PUSH2 0x1C1 JUMP JUMPDEST STOP JUMPDEST PUSH2 0xA3 PUSH1 0x4 DUP1 CALLDATASIZE SUB DUP2 ADD SWAP1 PUSH2 0x9E SWAP2 SWAP1 PUSH2 0x45C JUMP JUMPDEST PUSH2 0x30A JUMP JUMPDEST PUSH1 0x40 MLOAD PUSH2 0xB0 SWAP2 SWAP1 PUSH2 0x589 JUMP JUMPDEST PUSH1 0x40 MLOAD DUP1 SWAP2 SUB SWAP1 RETURN JUMPDEST PUSH2 0xD3 PUSH1 0x4 DUP1 CALLDATASIZE SUB DUP2 ADD SWAP1 PUSH2 0xCE SWAP2 SWAP1 PUSH2 0x45C JUMP JUMPDEST PUSH2 0x394 JUMP JUMPDEST PUSH1 0x40 MLOAD PUSH2 0xE4 SWAP6 SWAP5 SWAP4 SWAP3 SWAP2 SWAP1 PUSH2 0x5B3 JUMP JUMPDEST PUSH1 0x40 MLOAD DUP1 SWAP2 SUB SWAP1 RETURN JUMPDEST PUSH1 0x1 PUSH1 0x0 SWAP1 SLOAD SWAP1 PUSH2 0x100 EXP SWAP1 DIV PUSH20 0xFFFFFFFFFFFFFFFFFFFFFFFFFFFFFFFFFFFFFFFF AND PUSH20 0xFFFFFFFFFFFFFFFFFFFFFFFFFFFFFFFFFFFFFFFF AND CALLER PUSH20 0xFFFFFFFFFFFFFFFFFFFFFFFFFFFFFFFFFFFFFFFF AND EQ PUSH2 0x17D JUMPI PUSH1 0x40 MLOAD PUSH32 0x8C379A000000000000000000000000000000000000000000000000000000000 DUP2 MSTORE PUSH1 0x4 ADD PUSH2 0x174 SWAP1 PUSH2 0x689 JUMP JUMPDEST PUSH1 0x40 MLOAD DUP1 SWAP2 SUB SWAP1 REVERT JUMPDEST DUP1 PUSH1 0x1 PUSH1 0x0 PUSH2 0x100 EXP DUP2 SLOAD DUP2 PUSH20 0xFFFFFFFFFFFFFFFFFFFFFFFFFFFFFFFFFFFFFFFF MUL NOT AND SWAP1 DUP4 PUSH20 0xFFFFFFFFFFFFFFFFFFFFFFFFFFFFFFFFFFFFFFFF AND MUL OR SWAP1 SSTORE POP POP JUMP JUMPDEST PUSH1 0x1 PUSH1 0x0 SWAP1 SLOAD SWAP1 PUSH2 0x100 EXP SWAP1 DIV PUSH20 0xFFFFFFFFFFFFFFFFFFFFFFFFFFFFFFFFFFFFFFFF AND PUSH20 0xFFFFFFFFFFFFFFFFFFFFFFFFFFFFFFFFFFFFFFFF AND CALLER PUSH20 0xFFFFFFFFFFFFFFFFFFFFFFFFFFFFFFFFFFFFFFFF AND EQ PUSH2 0x251 JUMPI PUSH1 0x40 MLOAD PUSH32 0x8C379A000000000000000000000000000000000000000000000000000000000 DUP2 MSTORE PUSH1 0x4 ADD PUSH2 0x248 SWAP1 PUSH2 0x71B JUMP JUMPDEST PUSH1 0x40 MLOAD DUP1 SWAP2 SUB SWAP1 REVERT JUMPDEST PUSH1 0x0 DUP1 PUSH1 0x0 DUP6 PUSH20 0xFFFFFFFFFFFFFFFFFFFFFFFFFFFFFFFFFFFFFFFF AND PUSH20 0xFFFFFFFFFFFFFFFFFFFFFFFFFFFFFFFFFFFFFFFF AND DUP2 MSTORE PUSH1 0x20 ADD SWAP1 DUP2 MSTORE PUSH1 0x20 ADD PUSH1 0x0 KECCAK256 SWAP1 POP DUP3 DUP2 PUSH1 0x0 ADD PUSH1 0x0 DUP3 DUP3 SLOAD PUSH2 0x2A7 SWAP2 SWAP1 PUSH2 0x76A JUMP JUMPDEST SWAP3 POP POP DUP2 SWAP1 SSTORE POP DUP2 DUP2 PUSH1 0x1 ADD PUSH1 0x0 DUP3 DUP3 SLOAD PUSH2 0x2C2 SWAP2 SWAP1 PUSH2 0x76A JUMP JUMPDEST SWAP3 POP POP DUP2 SWAP1 SSTORE POP PUSH1 0x1 DUP2 PUSH1 0x2 ADD PUSH1 0x0 DUP3 DUP3 SLOAD PUSH2 0x2DE SWAP2 SWAP1 PUSH2 0x76A JUMP JUMPDEST SWAP3 POP POP DUP2 SWAP1 SSTORE POP DUP1 PUSH1 0x3 ADD SLOAD DUP4 GT ISZERO PUSH2 0x2FB JUMPI DUP3 DUP2 PUSH1 0x3 ADD DUP2 SWAP1 SSTORE POP JUMPDEST TIMESTAMP DUP2 PUSH1 0x4 ADD DUP2 SWAP1 SSTORE POP POP POP POP POP JUMP JUMPDEST PUSH2 0x312 PUSH2 0x3CA JUMP JUMPDEST PUSH1 0x0 DUP1 DUP4 PUSH20 0xFFFFFFFFFFFFFFFFFFFFFFFFFFFFFFFFFFFFFFFF AND PUSH20 0xFFFFFFFFFFFFFFFFFFFFFFFFFFFFFFFFFFFFFFFF AND DUP2 MSTORE PUSH1 0x20 ADD SWAP1 DUP2 MSTORE PUSH1 0x20 ADD PUSH1 0x0 KECCAK256 PUSH1 0x40 MLOAD DUP1 PUSH1 0xA0 ADD PUSH1 0x40 MSTORE SWAP1 DUP2 PUSH1 0x0 DUP3 ADD SLOAD DUP2 MSTORE PUSH1 0x20 ADD PUSH1 0x1 DUP3 ADD SLOAD DUP2 MSTORE PUSH1 0x20 ADD PUSH1 0x2 DUP3 ADD SLOAD DUP2 MSTORE PUSH1 0x20 ADD PUSH1 0x3 DUP3 ADD SLOAD DUP2 MSTORE PUSH1 0x20 ADD PUSH1 0x4 DUP3 ADD SLOAD DUP2 MSTORE POP POP SWAP1 POP SWAP2 SWAP1 POP JUMP JUMPDEST PUSH1 0x0 PUSH1 0x20 MSTORE DUP1 PUSH1 0x0 MSTORE PUSH1 0x40 PUSH1 0x0 KECCAK256 PUSH1 0x0 SWAP2 POP SWAP1 POP DUP1 PUSH1 0x0 ADD SLOAD SWAP1 DUP1 PUSH1 0x1 ADD SLOAD SWAP1 DUP1 PUSH1 0x2 ADD SLOAD SWAP1 DUP1 PUSH1 0x3 ADD SLOAD SWAP1 DUP1 PUSH1 0x4 ADD SLOAD SWAP1 POP DUP6 JUMP JUMPDEST PUSH1 0x40 MLOAD DUP1 PUSH1 0xA0 ADD PUSH1 0x40 MSTORE DUP1 PUSH1 0x0 DUP2 MSTORE PUSH1 0x20 ADD PUSH1 0x0 DUP2 MSTORE PUSH1 0x20 ADD PUSH1 0x0 DUP2 MSTORE PUSH1 0x20 ADD PUSH1 0x0 DUP2 MSTORE PUSH1 0x20 ADD PUSH1 0x0 DUP2 MSTORE POP SWAP1 JUMP JUMPDEST PUSH1 0x0 DUP1 REVERT JUMPDEST PUSH1 0x0 PUSH20 0xFFFFFFFFFFFFFFFFFFFFFFFFFFFFFFFFFFFFFFFF DUP3 AND SWAP1 POP SWAP2 SWAP1 POP JUMP JUMPDEST PUSH1 0x0 PUSH2 0x429 DUP3 PUSH2 0x3FE JUMP JUMPDEST SWAP1 POP SWAP2 SWAP1 POP JUMP JUMPDEST PUSH2 0x439 DUP2 PUSH2 0x41E JUMP JUMPDEST DUP2 EQ PUSH2 0x444 JUMPI PUSH1 0x0 DUP1 REVERT JUMPDEST POP JUMP JUMPDEST PUSH1 0x0 DUP2 CALLDATALOAD SWAP1 POP PUSH2 0x456 DUP2 PUSH2 0x430 JUMP JUMPDEST SWAP3 SWAP2 POP POP JUMP JUMPDEST PUSH1 0x0 PUSH1 0x20 DUP3 DUP5 SUB SLT ISZERO PUSH2 0x472 JUMPI PUSH2 0x471 PUSH2 0x3F9 JUMP JUMPDEST JUMPDEST PUSH1 0x0 PUSH2 0x480 DUP5 DUP3 DUP6 ADD PUSH2 0x447 JUMP JUMPDEST SWAP2 POP POP SWAP3 SWAP2 POP POP JUMP JUMPDEST PUSH1 0x0 DUP2 SWAP1 POP SWAP2 SWAP1 POP JUMP JUMPDEST PUSH2 0x49C DUP2 PUSH2 0x489 JUMP JUMPDEST DUP2 EQ PUSH2 0x4A7 JUMPI PUSH1 0x0 DUP1 REVERT JUMPDEST POP JUMP JUMPDEST PUSH1 0x0 DUP2 CALLDATALOAD SWAP1 POP PUSH2 0x4B9 DUP2 PUSH2 0x493 JUMP JUMPDEST SWAP3 SWAP2 POP POP JUMP JUMPDEST PUSH1 0x0 DUP1 PUSH1 0x0 PUSH1 0x60 DUP5 DUP7 SUB SLT ISZERO PUSH2 0x4D8 JUMPI PUSH2 0x4D7 PUSH2 0x3F9 JUMP JUMPDEST JUMPDEST PUSH1 0x0 PUSH2 0x4E6 DUP7 DUP3 DUP8 ADD PUSH2 0x447 JUMP JUMPDEST SWAP4 POP POP PUSH1 0x20 PUSH2 0x4F7 DUP7 DUP3 DUP8 ADD PUSH2 0x4AA JUMP JUMPDEST SWAP3 POP POP PUSH1 0x40 PUSH2 0x508 DUP7 DUP3 DUP8 ADD PUSH2 0x4AA JUMP JUMPDEST SWAP2 POP POP SWAP3 POP SWAP3 POP SWAP3 JUMP JUMPDEST PUSH2 0x51B DUP2 PUSH2 0x489 JUMP JUMPDEST DUP3 MSTORE POP POP JUMP JUMPDEST PUSH1 0xA0 DUP3 ADD PUSH1 0x0 DUP3 ADD MLOAD PUSH2 0x537 PUSH1 0x0 DUP6 ADD DUP3 PUSH2 0x512 JUMP JUMPDEST POP PUSH1 0x20 DUP3 ADD MLOAD PUSH2 0x54A PUSH1 0x20 DUP6 ADD DUP3 PUSH2 0x512 JUMP JUMPDEST POP PUSH1 0x40 DUP3 ADD MLOAD PUSH2 0x55D PUSH1 0x40 DUP6 ADD DUP3 PUSH2 0x512 JUMP JUMPDEST POP PUSH1 0x60 DUP3 ADD MLOAD PUSH2 0x570 PUSH1 0x60 DUP6 ADD DUP3 PUSH2 0x512 JUMP JUMPDEST POP PUSH1 0x80 DUP3 ADD MLOAD PUSH2 0x583 PUSH1 0x80 DUP6 ADD DUP3 PUSH2 0x512 JUMP JUMPDEST POP POP POP POP JUMP JUMPDEST PUSH1 0x0 PUSH1 0xA0 DUP3 ADD SWAP1 POP PUSH2 0x59E PUSH1 0x0 DUP4 ADD DUP5 PUSH2 0x521 JUMP JUMPDEST SWAP3 SWAP2 POP POP JUMP JUMPDEST PUSH2 0x5AD DUP2 PUSH2 0x489 JUMP JUMPDEST DUP3 MSTORE POP POP JUMP JUMPDEST PUSH1 0x0 PUSH1 0xA0 DUP3 ADD SWAP1 POP PUSH2 0x5C8 PUSH1 0x0 DUP4 ADD DUP9 PUSH2 0x5A4 JUMP JUMPDEST PUSH2 0x5D5 PUSH1 0x20 DUP4 ADD DUP8 PUSH2 0x5A4 JUMP JUMPDEST PUSH2 0x5E2 PUSH1 0x40 DUP4 ADD DUP7 PUSH2 0x5A4 JUMP JUMPDEST PUSH2 0x5EF PUSH1 0x60 DUP4 ADD DUP6 PUSH2 0x5A4 JUMP JUMPDEST PUSH2 0x5FC PUSH1 0x80 DUP4 ADD DUP5 PUSH2 0x5A4 JUMP JUMPDEST SWAP7 SWAP6 POP POP POP POP POP POP JUMP JUMPDEST PUSH1 0x0 DUP3 DUP3 MSTORE PUSH1 0x20 DUP3 ADD SWAP1 POP SWAP3 SWAP2 POP POP JUMP JUMPDEST PUSH32 0x4F6E6C792063757272656E742061646D696E2063616E20736574206E65772061 PUSH1 0x0 DUP3 ADD MSTORE PUSH32 0x646D696E00000000000000000000000000000000000000000000000000000000 PUSH1 0x20 DUP3 ADD MSTORE POP JUMP JUMPDEST PUSH1 0x0 PUSH2 0x673 PUSH1 0x24 DUP4 PUSH2 0x606 JUMP JUMPDEST SWAP2 POP PUSH2 0x67E DUP3 PUSH2 0x617 JUMP JUMPDEST PUSH1 0x40 DUP3 ADD SWAP1 POP SWAP2 SWAP1 POP JUMP JUMPDEST PUSH1 0x0 PUSH1 0x20 DUP3 ADD SWAP1 POP DUP2 DUP2 SUB PUSH1 0x0 DUP4 ADD MSTORE PUSH2 0x6A2 DUP2 PUSH2 0x666 JUMP JUMPDEST SWAP1 POP SWAP2 SWAP1 POP JUMP JUMPDEST PUSH32 0x4F6E6C792067616D652061646D696E2063616E20706572666F726D2074686973 PUSH1 0x0 DUP3 ADD MSTORE PUSH32 0x20616374696F6E00000000000000000000000000000000000000000000000000 PUSH1 0x20 DUP3 ADD MSTORE POP JUMP JUMPDEST PUSH1 0x0 PUSH2 0x705 PUSH1 0x27 DUP4 PUSH2 0x606 JUMP JUMPDEST SWAP2 POP PUSH2 0x710 DUP3 PUSH2 0x6A9 JUMP JUMPDEST PUSH1 0x40 DUP3 ADD SWAP1 POP SWAP2 SWAP1 POP JUMP JUMPDEST PUSH1 0x0 PUSH1 0x20 DUP3 ADD SWAP1 POP DUP2 DUP2 SUB PUSH1 0x0 DUP4 ADD MSTORE PUSH2 0x734 DUP2 PUSH2 0x6F8 JUMP JUMPDEST SWAP1 POP SWAP2 SWAP1 POP JUMP JUMPDEST PUSH32 0x4E487B7100000000000000000000000000000000000000000000000000000000 PUSH1 0x0 MSTORE PUSH1 0x11 PUSH1 0x4 MSTORE PUSH1 0x24 PUSH1 0x0 REVERT JUMPDEST PUSH1 0x0 PUSH2 0x775 DUP3 PUSH2 0x489 JUMP JUMPDEST SWAP2 POP PUSH2 0x780 DUP4 PUSH2 0x489 JUMP JUMPDEST SWAP3 POP DUP3 DUP3 ADD SWAP1 POP DUP1 DUP3 GT ISZERO PUSH2 0x798 JUMPI PUSH2 0x797 PUSH2 0x73B JUMP JUMPDEST JUMPDEST SWAP3 SWAP2 POP POP JUMP INVALID LOG2 PUSH5 0x6970667358 0x22 SLT KECCAK256 PUSH16 0x33FDF02A36F34073F5F428BD36C985DB PUSH1 0xAF DELEGATECALL ORIGIN SWAP15 0xC9 0xD0 SLT INVALID 0xB4 LOG1 CREATE2 0x24 0xE7 MSTORE PUSH5 0x736F6C6343 STOP ADDMOD GT STOP CALLER "},"methodIdentifiers":{"getPlayerStats(address)":"4fd66eae","playerStats(address)":"cdafbbb6","setGameAdmin(address)":"429d8533","updateStats(address,uint256,uint256)":"460cd1ed"}}}}}