{
  "_format": "hh-sol-artifact-1",
  "contractName": "PlayerStats",
  "sourceName": "contracts/PlayerStats.sol",
  "abi": [
    {
      "inputs": [],
      "stateMutability": "nonpayable",
      "type": "constructor"
    },
    {
      "inputs": [
        {
          "internalType": "address",
          "name": "player",
          "type": "address"
        }
      ],
      "name": "getPlayerStats",
      "outputs": [
        {
          "components": [
            {
              "internalType": "uint256",
              "name": "totalScore",
              "type": "uint256"
            },
            {
              "internalType": "uint256",
              "name": "targetsHit",
              "type": "uint256"
            },
            {
              "internalType": "uint256",
              "name": "gamesPlayed",
              "type": "uint256"
            },
            {
              "internalType": "uint256",
              "name": "highestScore",
              "type": "uint256"
            },
            {
              "internalType": "uint256",
              "name": "lastPlayed",
              "type": "uint256"
            }
          ],
          "internalType": "struct PlayerStats.Stats",
          "name": "",
          "type": "tuple"
        }
      ],
      "stateMutability": "view",
      "type": "function"
    },
    {
      "inputs": [
        {
          "internalType": "address",
          "name": "",
          "type": "address"
        }
      ],
      "name": "playerStats",
      "outputs": [
        {
          "internalType": "uint256",
          "name": "totalScore",
          "type": "uint256"
        },
        {
          "internalType": "uint256",
          "name": "targetsHit",
          "type": "uint256"
        },
        {
          "internalType": "uint256",
          "name": "gamesPlayed",
          "type": "uint256"
        },
        {
          "internalType": "uint256",
          "name": "highestScore",
          "type": "uint256"
        },
        {
          "internalType": "uint256",
          "name": "lastPlayed",
          "type": "uint256"
        }
      ],
      "stateMutability": "view",
      "type": "function"
    },
    {
      "inputs": [
        {
          "internalType": "address",
          "name": "gameAdmin",
          "type": "address"
        }
      ],
      "name": "setGameAdmin",
      "outputs": [],
      "stateMutability": "nonpayable",
      "type": "function"
    },
    {
      "inputs": [
        {
          "internalType": "address",
          "name": "player",
          "type": "address"
        },
        {
          "internalType": "uint256",
          "name": "sessionScore",
          "type": "uint256"
        },
        {
          "internalType": "uint256",
          "name": "sessionHits",
          "type": "uint256"
        }
      ],
      "name": "updateStats",
      "outputs": [],
      "stateMutability": "nonpayable",
      "type": "function"
    }
  ],
  "bytecode": "0x608060405234801561001057600080fd5b5033600160006101000a81548173ffffffffffffffffffffffffffffffffffffffff021916908373ffffffffffffffffffffffffffffffffffffffff1602179055506107d4806100616000396000f3fe608060405234801561001057600080fd5b506004361061004c5760003560e01c8063429d853314610051578063460cd1ed1461006d5780634fd66eae14610089578063cdafbbb6146100b9575b600080fd5b61006b6004803603810190610066919061045c565b6100ed565b005b610087600480360381019061008291906104bf565b6101c1565b005b6100a3600480360381019061009e919061045c565b61030a565b6040516100b09190610589565b60405180910390f35b6100d360048036038101906100ce919061045c565b610394565b6040516100e49594939291906105b3565b60405180910390f35b600160009054906101000a900473ffffffffffffffffffffffffffffffffffffffff1673ffffffffffffffffffffffffffffffffffffffff163373ffffffffffffffffffffffffffffffffffffffff161461017d576040517f08c379a000000000000000000000000000000000000000000000000000000000815260040161017490610689565b60405180910390fd5b80600160006101000a81548173ffffffffffffffffffffffffffffffffffffffff021916908373ffffffffffffffffffffffffffffffffffffffff16021790555050565b600160009054906101000a900473ffffffffffffffffffffffffffffffffffffffff1673ffffffffffffffffffffffffffffffffffffffff163373ffffffffffffffffffffffffffffffffffffffff1614610251576040517f08c379a00000000000000000000000000000000000000000000000000000000081526004016102489061071b565b60405180910390fd5b60008060008573ffffffffffffffffffffffffffffffffffffffff1673ffffffffffffffffffffffffffffffffffffffff1681526020019081526020016000209050828160000160008282546102a7919061076a565b92505081905550818160010160008282546102c2919061076a565b9250508190555060018160020160008282546102de919061076a565b9250508190555080600301548311156102fb578281600301819055505b42816004018190555050505050565b6103126103ca565b6000808373ffffffffffffffffffffffffffffffffffffffff1673ffffffffffffffffffffffffffffffffffffffff1681526020019081526020016000206040518060a0016040529081600082015481526020016001820154815260200160028201548152602001600382015481526020016004820154815250509050919050565b60006020528060005260406000206000915090508060000154908060010154908060020154908060030154908060040154905085565b6040518060a0016040528060008152602001600081526020016000815260200160008152602001600081525090565b600080fd5b600073ffffffffffffffffffffffffffffffffffffffff82169050919050565b6000610429826103fe565b9050919050565b6104398161041e565b811461044457600080fd5b50565b60008135905061045681610430565b92915050565b600060208284031215610472576104716103f9565b5b600061048084828501610447565b91505092915050565b6000819050919050565b61049c81610489565b81146104a757600080fd5b50565b6000813590506104b981610493565b92915050565b6000806000606084860312156104d8576104d76103f9565b5b60006104e686828701610447565b93505060206104f7868287016104aa565b9250506040610508868287016104aa565b9150509250925092565b61051b81610489565b82525050565b60a0820160008201516105376000850182610512565b50602082015161054a6020850182610512565b50604082015161055d6040850182610512565b5060608201516105706060850182610512565b5060808201516105836080850182610512565b50505050565b600060a08201905061059e6000830184610521565b92915050565b6105ad81610489565b82525050565b600060a0820190506105c860008301886105a4565b6105d560208301876105a4565b6105e260408301866105a4565b6105ef60608301856105a4565b6105fc60808301846105a4565b9695505050505050565b600082825260208201905092915050565b7f4f6e6c792063757272656e742061646d696e2063616e20736574206e6577206160008201527f646d696e00000000000000000000000000000000000000000000000000000000602082015250565b6000610673602483610606565b915061067e82610617565b604082019050919050565b600060208201905081810360008301526106a281610666565b9050919050565b7f4f6e6c792067616d652061646d696e2063616e20706572666f726d207468697360008201527f20616374696f6e00000000000000000000000000000000000000000000000000602082015250565b6000610705602783610606565b9150610710826106a9565b604082019050919050565b60006020820190508181036000830152610734816106f8565b9050919050565b7f4e487b7100000000000000000000000000000000000000000000000000000000600052601160045260246000fd5b600061077582610489565b915061078083610489565b92508282019050808211156107985761079761073b565b5b9291505056fea26469706673582212206f33fdf02a36f34073f5f428bd36c985db60aff4329ec9d012feb4a1f524e75264736f6c63430008110033",
  "linkReferences": {},
  "deployedLinkReferences": {}
}