{
    "_format": "hh-sol-artifact-1",
    "contractName": "TargetBlasterNFT",
    "sourceName": "contracts/TargetBlasterNFT.sol",
    "abi": [
        {
            "inputs": [
                {
                    "internalType": "string",
                    "name": "name",
                    "type": "string"
                },
                {
                    "internalType": "string",
                    "name": "symbol",
                    "type": "string"
                },
                {
                    "internalType": "string",
                    "name": "baseTokenURI",
                    "type": "string"
                }
            ],
            "stateMutability": "nonpayable",
            "type": "constructor"
        },
        {
            "anonymous": false,
            "inputs": [
                {
                    "indexed": true,
                    "internalType": "address",
                    "name": "owner",
                    "type": "address"
                },
                {
                    "indexed": true,
                    "internalType": "address",
                    "name": "approved",
                    "type": "address"
                },
                {
                    "indexed": true,
                    "internalType": "uint256",
                    "name": "tokenId",
                    "type": "uint256"
                }
            ],
            "name": "Approval",
            "type": "event"
        },
        {
            "anonymous": false,
            "inputs": [
                {
                    "indexed": true,
                    "internalType": "address",
                    "name": "owner",
                    "type": "address"
                },
                {
                    "indexed": true,
                    "internalType": "address",
                    "name": "operator",
                    "type": "address"
                },
                {
                    "indexed": false,
                    "internalType": "bool",
                    "name": "approved",
                    "type": "bool"
                }
            ],
            "name": "ApprovalForAll",
            "type": "event"
        },
        {
            "anonymous": false,
            "inputs": [
                {
                    "indexed": true,
                    "internalType": "address",
                    "name": "previousOwner",
                    "type": "address"
                },
                {
                    "indexed": true,
                    "internalType": "address",
                    "name": "newOwner",
                    "type": "address"
                }
            ],
            "name": "OwnershipTransferred",
            "type": "event"
        },
        {
            "anonymous": false,
            "inputs": [
                {
                    "indexed": true,
                    "internalType": "address",
                    "name": "from",
                    "type": "address"
                },
                {
                    "indexed": true,
                    "internalType": "address",
                    "name": "to",
                    "type": "address"
                },
                {
                    "indexed": true,
                    "internalType": "uint256",
                    "name": "tokenId",
                    "type": "uint256"
                }
            ],
            "name": "Transfer",
            "type": "event"
        },
        {
            "inputs": [
                {
                    "internalType": "address",
                    "name": "to",
                    "type": "address"
                },
                {
                    "internalType": "uint256",
                    "name": "tokenId",
                    "type": "uint256"
                }
            ],
            "name": "approve",
            "outputs": [],
            "stateMutability": "nonpayable",
            "type": "function"
        },
        {
            "inputs": [
                {
                    "internalType": "address",
                    "name": "owner",
                    "type": "address"
                }
            ],
            "name": "balanceOf",
            "outputs": [
                {
                    "internalType": "uint256",
                    "name": "",
                    "type": "uint256"
                }
            ],
            "stateMutability": "view",
            "type": "function"
        },
        {
            "inputs": [
                {
                    "internalType": "uint256",
                    "name": "tokenId",
                    "type": "uint256"
                }
            ],
            "name": "getApproved",
            "outputs": [
                {
                    "internalType": "address",
                    "name": "",
                    "type": "address"
                }
            ],
            "stateMutability": "view",
            "type": "function"
        },
        {
            "inputs": [
                {
                    "internalType": "address",
                    "name": "owner",
                    "type": "address"
                },
                {
                    "internalType": "address",
                    "name": "operator",
                    "type": "address"
                }
            ],
            "name": "isApprovedForAll",
            "outputs": [
                {
                    "internalType": "bool",
                    "name": "",
                    "type": "bool"
                }
            ],
            "stateMutability": "view",
            "type": "function"
        },
        {
            "inputs": [
                {
                    "internalType": "address",
                    "name": "player",
                    "type": "address"
                },
                {
                    "internalType": "enum TargetBlasterNFT.RewardType",
                    "name": "rewardType",
                    "type": "uint8"
                },
                {
                    "internalType": "string",
                    "name": "targetType",
                    "type": "string"
                },
                {
                    "internalType": "uint256",
                    "name": "scoreValue",
                    "type": "uint256"
                }
            ],
            "name": "mintReward",
            "outputs": [
                {
                    "internalType": "uint256",
                    "name": "",
                    "type": "uint256"
                }
            ],
            "stateMutability": "nonpayable",
            "type": "function"
        },
        {
            "inputs": [],
            "name": "name",
            "outputs": [
                {
                    "internalType": "string",
                    "name": "",
                    "type": "string"
                }
            ],
            "stateMutability": "view",
            "type": "function"
        },
        {
            "inputs": [
                {
                    "internalType": "uint256",
                    "name": "",
                    "type": "uint256"
                }
            ],
            "name": "nftMetadata",
            "outputs": [
                {
                    "internalType": "enum TargetBlasterNFT.RewardType",
                    "name": "rewardType",
                    "type": "uint8"
                },
                {
                    "internalType": "string",
                    "name": "targetType",
                    "type": "string"
                },
                {
                    "internalType": "uint256",
                    "name": "scoreValue",
                    "type": "uint256"
                },
                {
                    "internalType": "uint256",
                    "name": "mintedAt",
                    "type": "uint256"
                }
            ],
            "stateMutability": "view",
            "type": "function"
        },
        {
            "inputs": [],
            "name": "owner",
            "outputs": [
                {
                    "internalType": "address",
                    "name": "",
                    "type": "address"
                }
            ],
            "stateMutability": "view",
            "type": "function"
        },
        {
            "inputs": [
                {
                    "internalType": "uint256",
                    "name": "tokenId",
                    "type": "uint256"
                }
            ],
            "name": "ownerOf",
            "outputs": [
                {
                    "internalType": "address",
                    "name": "",
                    "type": "address"
                }
            ],
            "stateMutability": "view",
            "type": "function"
        },
        {
            "inputs": [],
            "name": "renounceOwnership",
            "outputs": [],
            "stateMutability": "nonpayable",
            "type": "function"
        },
        {
            "inputs": [
                {
                    "internalType": "address",
                    "name": "from",
                    "type": "address"
                },
                {
                    "internalType": "address",
                    "name": "to",
                    "type": "address"
                },
                {
                    "internalType": "uint256",
                    "name": "tokenId",
                    "type": "uint256"
                }
            ],
            "name": "safeTransferFrom",
            "outputs": [],
            "stateMutability": "nonpayable",
            "type": "function"
        },
        {
            "inputs": [
                {
                    "internalType": "address",
                    "name": "from",
                    "type": "address"
                },
                {
                    "internalType": "address",
                    "name": "to",
                    "type": "address"
                },
                {
                    "internalType": "uint256",
                    "name": "tokenId",
                    "type": "uint256"
                },
                {
                    "internalType": "bytes",
                    "name": "data",
                    "type": "bytes"
                }
            ],
            "name": "safeTransferFrom",
            "outputs": [],
            "stateMutability": "nonpayable",
            "type": "function"
        },
        {
            "inputs": [
                {
                    "internalType": "address",
                    "name": "operator",
                    "type": "address"
                },
                {
                    "internalType": "bool",
                    "name": "approved",
                    "type": "bool"
                }
            ],
            "name": "setApprovalForAll",
            "outputs": [],
            "stateMutability": "nonpayable",
            "type": "function"
        },
        {
            "inputs": [
                {
                    "internalType": "string",
                    "name": "baseURI",
                    "type": "string"
                }
            ],
            "name": "setBaseURI",
            "outputs": [],
            "stateMutability": "nonpayable",
            "type": "function"
        },
        {
            "inputs": [
                {
                    "internalType": "address",
                    "name": "gameAdmin",
                    "type": "address"
                }
            ],
            "name": "setGameAdmin",
            "outputs": [],
            "stateMutability": "nonpayable",
            "type": "function"
        },
        {
            "inputs": [
                {
                    "internalType": "bytes4",
                    "name": "interfaceId",
                    "type": "bytes4"
                }
            ],
            "name": "supportsInterface",
            "outputs": [
                {
                    "internalType": "bool",
                    "name": "",
                    "type": "bool"
                }
            ],
            "stateMutability": "view",
            "type": "function"
        },
        {
            "inputs": [],
            "name": "symbol",
            "outputs": [
                {
                    "internalType": "string",
                    "name": "",
                    "type": "string"
                }
            ],
            "stateMutability": "view",
            "type": "function"
        },
        {
            "inputs": [
                {
                    "internalType": "uint256",
                    "name": "index",
                    "type": "uint256"
                }
            ],
            "name": "tokenByIndex",
            "outputs": [
                {
                    "internalType": "uint256",
                    "name": "",
                    "type": "uint256"
                }
            ],
            "stateMutability": "view",
            "type": "function"
        },
        {
            "inputs": [
                {
                    "internalType": "address",
                    "name": "owner",
                    "type": "address"
                },
                {
                    "internalType": "uint256",
                    "name": "index",
                    "type": "uint256"
                }
            ],
            "name": "tokenOfOwnerByIndex",
            "outputs": [
                {
                    "internalType": "uint256",
                    "name": "",
                    "type": "uint256"
                }
            ],
            "stateMutability": "view",
            "type": "function"
        },
        {
            "inputs": [
                {
                    "internalType": "uint256",
                    "name": "tokenId",
                    "type": "uint256"
                }
            ],
            "name": "tokenURI",
            "outputs": [
                {
                    "internalType": "string",
                    "name": "",
                    "type": "string"
                }
            ],
            "stateMutability": "view",
            "type": "function"
        },
        {
            "inputs": [],
            "name": "totalSupply",
            "outputs": [
                {
                    "internalType": "uint256",
                    "name": "",
                    "type": "uint256"
                }
            ],
            "stateMutability": "view",
            "type": "function"
        },
        {
            "inputs": [
                {
                    "internalType": "address",
                    "name": "from",
                    "type": "address"
                },
                {
                    "internalType": "address",
                    "name": "to",
                    "type": "address"
                },
                {
                    "internalType": "uint256",
                    "name": "tokenId",
                    "type": "uint256"
                }
            ],
            "name": "transferFrom",
            "outputs": [],
            "stateMutability": "nonpayable",
            "type": "function"
        },
        {
            "inputs": [
                {
                    "internalType": "address",
                    "name": "newOwner",
                    "type": "address"
                }
            ],
            "name": "transferOwnership",
            "outputs": [],
            "stateMutability": "nonpayable",
            "type": "function"
        }
    ],
    "bytecode": "0x60806040523480156200001157600080fd5b50604051620041ae380380620041ae83398181016040528101906200003791906200033c565b828281600090816200004a919062000640565b5080600190816200005c919062000640565b5050506200007f62000073620000db60201b60201c565b620000e360201b60201c565b80600d908162000090919062000640565b5033600e60006101000a81548173ffffffffffffffffffffffffffffffffffffffff021916908373ffffffffffffffffffffffffffffffffffffffff16021790555050505062000727565b600033905090565b6000600a60009054906101000a900473ffffffffffffffffffffffffffffffffffffffff16905081600a60006101000a81548173ffffffffffffffffffffffffffffffffffffffff021916908373ffffffffffffffffffffffffffffffffffffffff1602179055508173ffffffffffffffffffffffffffffffffffffffff168173ffffffffffffffffffffffffffffffffffffffff167f8be0079c531659141344cd1fd0a4f28419497f9722a3daafe3b4186f6b6457e060405160405180910390a35050565b6000604051905090565b600080fd5b600080fd5b600080fd5b600080fd5b6000601f19601f8301169050919050565b7f4e487b7100000000000000000000000000000000000000000000000000000000600052604160045260246000fd5b6200021282620001c7565b810181811067ffffffffffffffff82111715620002345762000233620001d8565b5b80604052505050565b600062000249620001a9565b905062000257828262000207565b919050565b600067ffffffffffffffff8211156200027a5762000279620001d8565b5b6200028582620001c7565b9050602081019050919050565b60005b83811015620002b257808201518184015260208101905062000295565b60008484015250505050565b6000620002d5620002cf846200025c565b6200023d565b905082815260208101848484011115620002f457620002f3620001c2565b5b6200030184828562000292565b509392505050565b600082601f830112620003215762000320620001bd565b5b815162000333848260208601620002be565b91505092915050565b600080600060608486031215620003585762000357620001b3565b5b600084015167ffffffffffffffff811115620003795762000378620001b8565b5b620003878682870162000309565b935050602084015167ffffffffffffffff811115620003ab57620003aa620001b8565b5b620003b98682870162000309565b925050604084015167ffffffffffffffff811115620003dd57620003dc620001b8565b5b620003eb8682870162000309565b9150509250925092565b600081519050919050565b7f4e487b7100000000000000000000000000000000000000000000000000000000600052602260045260246000fd5b600060028204905060018216806200044857607f821691505b6020821081036200045e576200045d62000400565b5b50919050565b60008190508160005260206000209050919050565b60006020601f8301049050919050565b600082821b905092915050565b600060088302620004c87fffffffffffffffffffffffffffffffffffffffffffffffffffffffffffffffff8262000489565b620004d4868362000489565b95508019841693508086168417925050509392505050565b6000819050919050565b6000819050919050565b6000620005216200051b6200051584620004ec565b620004f6565b620004ec565b9050919050565b6000819050919050565b6200053d8362000500565b620005556200054c8262000528565b84845462000496565b825550505050565b600090565b6200056c6200055d565b6200057981848462000532565b505050565b5b81811015620005a1576200059560008262000562565b6001810190506200057f565b5050565b601f821115620005f057620005ba8162000464565b620005c58462000479565b81016020851015620005d5578190505b620005ed620005e48562000479565b8301826200057e565b50505b505050565b600082821c905092915050565b60006200061560001984600802620005f5565b1980831691505092915050565b600062000630838362000602565b9150826002028217905092915050565b6200064b82620003f5565b67ffffffffffffffff811115620006675762000666620001d8565b5b6200067382546200042f565b62000680828285620005a5565b600060209050601f831160018114620006b85760008415620006a3578287015190505b620006af858262000622565b8655506200071f565b601f198416620006c88662000464565b60005b82811015620006f257848901518255600182019150602085019450602081019050620006cb565b868310156200071257848901516200070e601f89168262000602565b8355505b6001600288020188555050505b505050505050565b613a7780620007376000396000f3fe608060405234801561001057600080fd5b506004361061014d5760003560e01c80634f6ccce7116100c357806395d89b411161007c57806395d89b41146103c5578063a22cb465146103e3578063b88d4fde146103ff578063c87b56dd1461041b578063e985e9c51461044b578063f2fde38b1461047b5761014d565b80634f6ccce7146102f157806355f804b3146103215780636352211e1461033d57806370a082311461036d578063715018a61461039d5780638da5cb5b146103a75761014d565b806323b872dd1161011557806323b872dd1461020a5780632f745c591461022657806342842e0e14610256578063429d853314610272578063495410151461028e5780634ebe47c8146102c15761014d565b806301ffc9a71461015257806306fdde0314610182578063081812fc146101a0578063095ea7b3146101d057806318160ddd146101ec575b600080fd5b61016c60048036038101906101679190612499565b610497565b60405161017991906124e1565b60405180910390f35b61018a610511565b604051610197919061258c565b60405180910390f35b6101ba60048036038101906101b591906125e4565b6105a3565b6040516101c79190612652565b60405180910390f35b6101ea60048036038101906101e59190612699565b6105e9565b005b6101f4610700565b60405161020191906126e8565b60405180910390f35b610224600480360381019061021f9190612703565b61070d565b005b610240600480360381019061023b9190612699565b61076d565b60405161024d91906126e8565b60405180910390f35b610270600480360381019061026b9190612703565b610812565b005b61028c60048036038101906102879190612756565b610832565b005b6102a860048036038101906102a391906125e4565b61087e565b6040516102b894939291906127fa565b60405180910390f35b6102db60048036038101906102d691906129a0565b610943565b6040516102e891906126e8565b60405180910390f35b61030b600480360381019061030691906125e4565b610aa6565b60405161031891906126e8565b60405180910390f35b61033b60048036038101906103369190612a23565b610b17565b005b610357600480360381019061035291906125e4565b610b32565b6040516103649190612652565b60405180910390f35b61038760048036038101906103829190612756565b610bb8565b60405161039491906126e8565b60405180910390f35b6103a5610c6f565b005b6103af610c83565b6040516103bc9190612652565b60405180910390f35b6103cd610cad565b6040516103da919061258c565b60405180910390f35b6103fd60048036038101906103f89190612a98565b610d3f565b005b61041960048036038101906104149190612b79565b610d55565b005b610435600480360381019061043091906125e4565b610db7565b604051610442919061258c565b60405180910390f35b61046560048036038101906104609190612bfc565b610e1f565b60405161047291906124e1565b60405180910390f35b61049560048036038101906104909190612756565b610eb3565b005b60007f780e9d63000000000000000000000000000000000000000000000000000000007bffffffffffffffffffffffffffffffffffffffffffffffffffffffff1916827bffffffffffffffffffffffffffffffffffffffffffffffffffffffff1916148061050a575061050982610f36565b5b9050919050565b60606000805461052090612c6b565b80601f016020809104026020016040519081016040528092919081815260200182805461054c90612c6b565b80156105995780601f1061056e57610100808354040283529160200191610599565b820191906000526020600020905b81548152906001019060200180831161057c57829003601f168201915b5050505050905090565b60006105ae82611018565b6004600083815260200190815260200160002060009054906101000a900473ffffffffffffffffffffffffffffffffffffffff169050919050565b60006105f482610b32565b90508073ffffffffffffffffffffffffffffffffffffffff168373ffffffffffffffffffffffffffffffffffffffff1603610664576040517f08c379a000000000000000000000000000000000000000000000000000000000815260040161065b90612d0e565b60405180910390fd5b8073ffffffffffffffffffffffffffffffffffffffff16610683611063565b73ffffffffffffffffffffffffffffffffffffffff1614806106b257506106b1816106ac611063565b610e1f565b5b6106f1576040517f08c379a00000000000000000000000000000000000000000000000000000000081526004016106e890612da0565b60405180910390fd5b6106fb838361106b565b505050565b6000600880549050905090565b61071e610718611063565b82611124565b61075d576040517f08c379a000000000000000000000000000000000000000000000000000000000815260040161075490612e32565b60405180910390fd5b6107688383836111b9565b505050565b600061077883610bb8565b82106107b9576040517f08c379a00000000000000000000000000000000000000000000000000000000081526004016107b090612ec4565b60405180910390fd5b600660008473ffffffffffffffffffffffffffffffffffffffff1673ffffffffffffffffffffffffffffffffffffffff168152602001908152602001600020600083815260200190815260200160002054905092915050565b61082d83838360405180602001604052806000815250610d55565b505050565b61083a6114b2565b80600e60006101000a81548173ffffffffffffffffffffffffffffffffffffffff021916908373ffffffffffffffffffffffffffffffffffffffff16021790555050565b600c6020528060005260406000206000915090508060000160009054906101000a900460ff16908060010180546108b490612c6b565b80601f01602080910402602001604051908101604052809291908181526020018280546108e090612c6b565b801561092d5780601f106109025761010080835404028352916020019161092d565b820191906000526020600020905b81548152906001019060200180831161091057829003601f168201915b5050505050908060020154908060030154905084565b6000600e60009054906101000a900473ffffffffffffffffffffffffffffffffffffffff1673ffffffffffffffffffffffffffffffffffffffff163373ffffffffffffffffffffffffffffffffffffffff16146109d5576040517f08c379a00000000000000000000000000000000000000000000000000000000081526004016109cc90612f56565b60405180910390fd5b6109df600b611530565b60006109eb600b611546565b90506109f78682611554565b6040518060800160405280866003811115610a1557610a14612783565b5b815260200185815260200184815260200142815250600c600083815260200190815260200160002060008201518160000160006101000a81548160ff02191690836003811115610a6857610a67612783565b5b02179055506020820151816001019081610a829190613122565b50604082015181600201556060820151816003015590505080915050949350505050565b6000610ab0610700565b8210610af1576040517f08c379a0000000000000000000000000000000000000000000000000000000008152600401610ae890613266565b60405180910390fd5b60088281548110610b0557610b04613286565b5b90600052602060002001549050919050565b610b1f6114b2565b80600d9081610b2e9190613122565b5050565b600080610b3e83611572565b9050600073ffffffffffffffffffffffffffffffffffffffff168173ffffffffffffffffffffffffffffffffffffffff1603610baf576040517f08c379a0000000000000000000000000000000000000000000000000000000008152600401610ba690613301565b60405180910390fd5b80915050919050565b60008073ffffffffffffffffffffffffffffffffffffffff168273ffffffffffffffffffffffffffffffffffffffff1603610c28576040517f08c379a0000000000000000000000000000000000000000000000000000000008152600401610c1f90613393565b60405180910390fd5b600360008373ffffffffffffffffffffffffffffffffffffffff1673ffffffffffffffffffffffffffffffffffffffff168152602001908152602001600020549050919050565b610c776114b2565b610c8160006115af565b565b6000600a60009054906101000a900473ffffffffffffffffffffffffffffffffffffffff16905090565b606060018054610cbc90612c6b565b80601f0160208091040260200160405190810160405280929190818152602001828054610ce890612c6b565b8015610d355780601f10610d0a57610100808354040283529160200191610d35565b820191906000526020600020905b815481529060010190602001808311610d1857829003601f168201915b5050505050905090565b610d51610d4a611063565b8383611675565b5050565b610d66610d60611063565b83611124565b610da5576040517f08c379a0000000000000000000000000000000000000000000000000000000008152600401610d9c90612e32565b60405180910390fd5b610db1848484846117e1565b50505050565b6060610dc282611018565b6000610dcc61183d565b90506000815111610dec5760405180602001604052806000815250610e17565b80610df6846118cf565b604051602001610e079291906133ef565b6040516020818303038152906040525b915050919050565b6000600560008473ffffffffffffffffffffffffffffffffffffffff1673ffffffffffffffffffffffffffffffffffffffff16815260200190815260200160002060008373ffffffffffffffffffffffffffffffffffffffff1673ffffffffffffffffffffffffffffffffffffffff16815260200190815260200160002060009054906101000a900460ff16905092915050565b610ebb6114b2565b600073ffffffffffffffffffffffffffffffffffffffff168173ffffffffffffffffffffffffffffffffffffffff1603610f2a576040517f08c379a0000000000000000000000000000000000000000000000000000000008152600401610f2190613485565b60405180910390fd5b610f33816115af565b50565b60007f80ac58cd000000000000000000000000000000000000000000000000000000007bffffffffffffffffffffffffffffffffffffffffffffffffffffffff1916827bffffffffffffffffffffffffffffffffffffffffffffffffffffffff1916148061100157507f5b5e139f000000000000000000000000000000000000000000000000000000007bffffffffffffffffffffffffffffffffffffffffffffffffffffffff1916827bffffffffffffffffffffffffffffffffffffffffffffffffffffffff1916145b8061101157506110108261199d565b5b9050919050565b61102181611a07565b611060576040517f08c379a000000000000000000000000000000000000000000000000000000000815260040161105790613301565b60405180910390fd5b50565b600033905090565b816004600083815260200190815260200160002060006101000a81548173ffffffffffffffffffffffffffffffffffffffff021916908373ffffffffffffffffffffffffffffffffffffffff160217905550808273ffffffffffffffffffffffffffffffffffffffff166110de83610b32565b73ffffffffffffffffffffffffffffffffffffffff167f8c5be1e5ebec7d5bd14f71427d1e84f3dd0314c0f7b2291e5b200ac8c7c3b92560405160405180910390a45050565b60008061113083610b32565b90508073ffffffffffffffffffffffffffffffffffffffff168473ffffffffffffffffffffffffffffffffffffffff16148061117257506111718185610e1f565b5b806111b057508373ffffffffffffffffffffffffffffffffffffffff16611198846105a3565b73ffffffffffffffffffffffffffffffffffffffff16145b91505092915050565b8273ffffffffffffffffffffffffffffffffffffffff166111d982610b32565b73ffffffffffffffffffffffffffffffffffffffff161461122f576040517f08c379a000000000000000000000000000000000000000000000000000000000815260040161122690613517565b60405180910390fd5b600073ffffffffffffffffffffffffffffffffffffffff168273ffffffffffffffffffffffffffffffffffffffff160361129e576040517f08c379a0000000000000000000000000000000000000000000000000000000008152600401611295906135a9565b60405180910390fd5b6112ab8383836001611a48565b8273ffffffffffffffffffffffffffffffffffffffff166112cb82610b32565b73ffffffffffffffffffffffffffffffffffffffff1614611321576040517f08c379a000000000000000000000000000000000000000000000000000000000815260040161131890613517565b60405180910390fd5b6004600082815260200190815260200160002060006101000a81549073ffffffffffffffffffffffffffffffffffffffff02191690556001600360008573ffffffffffffffffffffffffffffffffffffffff1673ffffffffffffffffffffffffffffffffffffffff168152602001908152602001600020600082825403925050819055506001600360008473ffffffffffffffffffffffffffffffffffffffff1673ffffffffffffffffffffffffffffffffffffffff16815260200190815260200160002060008282540192505081905550816002600083815260200190815260200160002060006101000a81548173ffffffffffffffffffffffffffffffffffffffff021916908373ffffffffffffffffffffffffffffffffffffffff160217905550808273ffffffffffffffffffffffffffffffffffffffff168473ffffffffffffffffffffffffffffffffffffffff167fddf252ad1be2c89b69c2b068fc378daa952ba7f163c4a11628f55a4df523b3ef60405160405180910390a46114ad8383836001611ba6565b505050565b6114ba611063565b73ffffffffffffffffffffffffffffffffffffffff166114d8610c83565b73ffffffffffffffffffffffffffffffffffffffff161461152e576040517f08c379a000000000000000000000000000000000000000000000000000000000815260040161152590613615565b60405180910390fd5b565b6001816000016000828254019250508190555050565b600081600001549050919050565b61156e828260405180602001604052806000815250611bac565b5050565b60006002600083815260200190815260200160002060009054906101000a900473ffffffffffffffffffffffffffffffffffffffff169050919050565b6000600a60009054906101000a900473ffffffffffffffffffffffffffffffffffffffff16905081600a60006101000a81548173ffffffffffffffffffffffffffffffffffffffff021916908373ffffffffffffffffffffffffffffffffffffffff1602179055508173ffffffffffffffffffffffffffffffffffffffff168173ffffffffffffffffffffffffffffffffffffffff167f8be0079c531659141344cd1fd0a4f28419497f9722a3daafe3b4186f6b6457e060405160405180910390a35050565b8173ffffffffffffffffffffffffffffffffffffffff168373ffffffffffffffffffffffffffffffffffffffff16036116e3576040517f08c379a00000000000000000000000000000000000000000000000000000000081526004016116da90613681565b60405180910390fd5b80600560008573ffffffffffffffffffffffffffffffffffffffff1673ffffffffffffffffffffffffffffffffffffffff16815260200190815260200160002060008473ffffffffffffffffffffffffffffffffffffffff1673ffffffffffffffffffffffffffffffffffffffff16815260200190815260200160002060006101000a81548160ff0219169083151502179055508173ffffffffffffffffffffffffffffffffffffffff168373ffffffffffffffffffffffffffffffffffffffff167f17307eab39ab6107e8899845ad3d59bd9653f200f220920489ca2b5937696c31836040516117d491906124e1565b60405180910390a3505050565b6117ec8484846111b9565b6117f884848484611c07565b611837576040517f08c379a000000000000000000000000000000000000000000000000000000000815260040161182e90613713565b60405180910390fd5b50505050565b6060600d805461184c90612c6b565b80601f016020809104026020016040519081016040528092919081815260200182805461187890612c6b565b80156118c55780601f1061189a576101008083540402835291602001916118c5565b820191906000526020600020905b8154815290600101906020018083116118a857829003601f168201915b5050505050905090565b6060600060016118de84611d8e565b01905060008167ffffffffffffffff8111156118fd576118fc612875565b5b6040519080825280601f01601f19166020018201604052801561192f5781602001600182028036833780820191505090505b509050600082602001820190505b600115611992578080600190039150507f3031323334353637383961626364656600000000000000000000000000000000600a86061a8153600a858161198657611985613733565b5b0494506000850361193d575b819350505050919050565b60007f01ffc9a7000000000000000000000000000000000000000000000000000000007bffffffffffffffffffffffffffffffffffffffffffffffffffffffff1916827bffffffffffffffffffffffffffffffffffffffffffffffffffffffff1916149050919050565b60008073ffffffffffffffffffffffffffffffffffffffff16611a2983611572565b73ffffffffffffffffffffffffffffffffffffffff1614159050919050565b611a5484848484611ee1565b6001811115611a98576040517f08c379a0000000000000000000000000000000000000000000000000000000008152600401611a8f906137d4565b60405180910390fd5b6000829050600073ffffffffffffffffffffffffffffffffffffffff168573ffffffffffffffffffffffffffffffffffffffff1603611adf57611ada81611ee7565b611b1e565b8373ffffffffffffffffffffffffffffffffffffffff168573ffffffffffffffffffffffffffffffffffffffff1614611b1d57611b1c8582611f30565b5b5b600073ffffffffffffffffffffffffffffffffffffffff168473ffffffffffffffffffffffffffffffffffffffff1603611b6057611b5b8161209d565b611b9f565b8473ffffffffffffffffffffffffffffffffffffffff168473ffffffffffffffffffffffffffffffffffffffff1614611b9e57611b9d848261216e565b5b5b5050505050565b50505050565b611bb683836121ed565b611bc36000848484611c07565b611c02576040517f08c379a0000000000000000000000000000000000000000000000000000000008152600401611bf990613713565b60405180910390fd5b505050565b6000611c288473ffffffffffffffffffffffffffffffffffffffff1661240a565b15611d81578373ffffffffffffffffffffffffffffffffffffffff1663150b7a02611c51611063565b8786866040518563ffffffff1660e01b8152600401611c739493929190613849565b6020604051808303816000875af1925050508015611caf57506040513d601f19601f82011682018060405250810190611cac91906138aa565b60015b611d31573d8060008114611cdf576040519150601f19603f3d011682016040523d82523d6000602084013e611ce4565b606091505b506000815103611d29576040517f08c379a0000000000000000000000000000000000000000000000000000000008152600401611d2090613713565b60405180910390fd5b805181602001fd5b63150b7a0260e01b7bffffffffffffffffffffffffffffffffffffffffffffffffffffffff1916817bffffffffffffffffffffffffffffffffffffffffffffffffffffffff191614915050611d86565b600190505b949350505050565b600080600090507a184f03e93ff9f4daa797ed6e38ed64bf6a1f0100000000000000008310611dec577a184f03e93ff9f4daa797ed6e38ed64bf6a1f0100000000000000008381611de257611de1613733565b5b0492506040810190505b6d04ee2d6d415b85acef81000000008310611e29576d04ee2d6d415b85acef81000000008381611e1f57611e1e613733565b5b0492506020810190505b662386f26fc100008310611e5857662386f26fc100008381611e4e57611e4d613733565b5b0492506010810190505b6305f5e1008310611e81576305f5e1008381611e7757611e76613733565b5b0492506008810190505b6127108310611ea6576127108381611e9c57611e9b613733565b5b0492506004810190505b60648310611ec95760648381611ebf57611ebe613733565b5b0492506002810190505b600a8310611ed8576001810190505b80915050919050565b50505050565b6008805490506009600083815260200190815260200160002081905550600881908060018154018082558091505060019003906000526020600020016000909190919091505550565b60006001611f3d84610bb8565b611f479190613906565b905060006007600084815260200190815260200160002054905081811461202c576000600660008673ffffffffffffffffffffffffffffffffffffffff1673ffffffffffffffffffffffffffffffffffffffff168152602001908152602001600020600084815260200190815260200160002054905080600660008773ffffffffffffffffffffffffffffffffffffffff1673ffffffffffffffffffffffffffffffffffffffff168152602001908152602001600020600084815260200190815260200160002081905550816007600083815260200190815260200160002081905550505b6007600084815260200190815260200160002060009055600660008573ffffffffffffffffffffffffffffffffffffffff1673ffffffffffffffffffffffffffffffffffffffff16815260200190815260200160002060008381526020019081526020016000206000905550505050565b600060016008805490506120b19190613906565b90506000600960008481526020019081526020016000205490506000600883815481106120e1576120e0613286565b5b90600052602060002001549050806008838154811061210357612102613286565b5b9060005260206000200181905550816009600083815260200190815260200160002081905550600960008581526020019081526020016000206000905560088054806121525761215161393a565b5b6001900381819060005260206000200160009055905550505050565b600061217983610bb8565b905081600660008573ffffffffffffffffffffffffffffffffffffffff1673ffffffffffffffffffffffffffffffffffffffff168152602001908152602001600020600083815260200190815260200160002081905550806007600084815260200190815260200160002081905550505050565b600073ffffffffffffffffffffffffffffffffffffffff168273ffffffffffffffffffffffffffffffffffffffff160361225c576040517f08c379a0000000000000000000000000000000000000000000000000000000008152600401612253906139b5565b60405180910390fd5b61226581611a07565b156122a5576040517f08c379a000000000000000000000000000000000000000000000000000000000815260040161229c90613a21565b60405180910390fd5b6122b3600083836001611a48565b6122bc81611a07565b156122fc576040517f08c379a00000000000000000000000000000000000000000000000000000000081526004016122f390613a21565b60405180910390fd5b6001600360008473ffffffffffffffffffffffffffffffffffffffff1673ffffffffffffffffffffffffffffffffffffffff16815260200190815260200160002060008282540192505081905550816002600083815260200190815260200160002060006101000a81548173ffffffffffffffffffffffffffffffffffffffff021916908373ffffffffffffffffffffffffffffffffffffffff160217905550808273ffffffffffffffffffffffffffffffffffffffff16600073ffffffffffffffffffffffffffffffffffffffff167fddf252ad1be2c89b69c2b068fc378daa952ba7f163c4a11628f55a4df523b3ef60405160405180910390a4612406600083836001611ba6565b5050565b6000808273ffffffffffffffffffffffffffffffffffffffff163b119050919050565b6000604051905090565b600080fd5b600080fd5b60007fffffffff0000000000000000000000000000000000000000000000000000000082169050919050565b61247681612441565b811461248157600080fd5b50565b6000813590506124938161246d565b92915050565b6000602082840312156124af576124ae612437565b5b60006124bd84828501612484565b91505092915050565b60008115159050919050565b6124db816124c6565b82525050565b60006020820190506124f660008301846124d2565b92915050565b600081519050919050565b600082825260208201905092915050565b60005b8381101561253657808201518184015260208101905061251b565b60008484015250505050565b6000601f19601f8301169050919050565b600061255e826124fc565b6125688185612507565b9350612578818560208601612518565b61258181612542565b840191505092915050565b600060208201905081810360008301526125a68184612553565b905092915050565b6000819050919050565b6125c1816125ae565b81146125cc57600080fd5b50565b6000813590506125de816125b8565b92915050565b6000602082840312156125fa576125f9612437565b5b6000612608848285016125cf565b91505092915050565b600073ffffffffffffffffffffffffffffffffffffffff82169050919050565b600061263c82612611565b9050919050565b61264c81612631565b82525050565b60006020820190506126676000830184612643565b92915050565b61267681612631565b811461268157600080fd5b50565b6000813590506126938161266d565b92915050565b600080604083850312156126b0576126af612437565b5b60006126be85828601612684565b92505060206126cf858286016125cf565b9150509250929050565b6126e2816125ae565b82525050565b60006020820190506126fd60008301846126d9565b92915050565b60008060006060848603121561271c5761271b612437565b5b600061272a86828701612684565b935050602061273b86828701612684565b925050604061274c868287016125cf565b9150509250925092565b60006020828403121561276c5761276b612437565b5b600061277a84828501612684565b91505092915050565b7f4e487b7100000000000000000000000000000000000000000000000000000000600052602160045260246000fd5b600481106127c3576127c2612783565b5b50565b60008190506127d4826127b2565b919050565b60006127e4826127c6565b9050919050565b6127f4816127d9565b82525050565b600060808201905061280f60008301876127eb565b81810360208301526128218186612553565b905061283060408301856126d9565b61283d60608301846126d9565b95945050505050565b6004811061285357600080fd5b50565b60008135905061286581612846565b92915050565b600080fd5b600080fd5b7f4e487b7100000000000000000000000000000000000000000000000000000000600052604160045260246000fd5b6128ad82612542565b810181811067ffffffffffffffff821117156128cc576128cb612875565b5b80604052505050565b60006128df61242d565b90506128eb82826128a4565b919050565b600067ffffffffffffffff82111561290b5761290a612875565b5b61291482612542565b9050602081019050919050565b82818337600083830152505050565b600061294361293e846128f0565b6128d5565b90508281526020810184848401111561295f5761295e612870565b5b61296a848285612921565b509392505050565b600082601f8301126129875761298661286b565b5b8135612997848260208601612930565b91505092915050565b600080600080608085870312156129ba576129b9612437565b5b60006129c887828801612684565b94505060206129d987828801612856565b935050604085013567ffffffffffffffff8111156129fa576129f961243c565b5b612a0687828801612972565b9250506060612a17878288016125cf565b91505092959194509250565b600060208284031215612a3957612a38612437565b5b600082013567ffffffffffffffff811115612a5757612a5661243c565b5b612a6384828501612972565b91505092915050565b612a75816124c6565b8114612a8057600080fd5b50565b600081359050612a9281612a6c565b92915050565b60008060408385031215612aaf57612aae612437565b5b6000612abd85828601612684565b9250506020612ace85828601612a83565b9150509250929050565b600067ffffffffffffffff821115612af357612af2612875565b5b612afc82612542565b9050602081019050919050565b6000612b1c612b1784612ad8565b6128d5565b905082815260208101848484011115612b3857612b37612870565b5b612b43848285612921565b509392505050565b600082601f830112612b6057612b5f61286b565b5b8135612b70848260208601612b09565b91505092915050565b60008060008060808587031215612b9357612b92612437565b5b6000612ba187828801612684565b9450506020612bb287828801612684565b9350506040612bc3878288016125cf565b925050606085013567ffffffffffffffff811115612be457612be361243c565b5b612bf087828801612b4b565b91505092959194509250565b60008060408385031215612c1357612c12612437565b5b6000612c2185828601612684565b9250506020612c3285828601612684565b9150509250929050565b7f4e487b7100000000000000000000000000000000000000000000000000000000600052602260045260246000fd5b60006002820490506001821680612c8357607f821691505b602082108103612c9657612c95612c3c565b5b50919050565b7f4552433732313a20617070726f76616c20746f2063757272656e74206f776e6560008201527f7200000000000000000000000000000000000000000000000000000000000000602082015250565b6000612cf8602183612507565b9150612d0382612c9c565b604082019050919050565b60006020820190508181036000830152612d2781612ceb565b9050919050565b7f4552433732313a20617070726f76652063616c6c6572206973206e6f7420746f60008201527f6b656e206f776e6572206f7220617070726f76656420666f7220616c6c000000602082015250565b6000612d8a603d83612507565b9150612d9582612d2e565b604082019050919050565b60006020820190508181036000830152612db981612d7d565b9050919050565b7f4552433732313a2063616c6c6572206973206e6f7420746f6b656e206f776e6560008201527f72206f7220617070726f76656400000000000000000000000000000000000000602082015250565b6000612e1c602d83612507565b9150612e2782612dc0565b604082019050919050565b60006020820190508181036000830152612e4b81612e0f565b9050919050565b7f455243373231456e756d657261626c653a206f776e657220696e646578206f7560008201527f74206f6620626f756e6473000000000000000000000000000000000000000000602082015250565b6000612eae602b83612507565b9150612eb982612e52565b604082019050919050565b60006020820190508181036000830152612edd81612ea1565b9050919050565b7f4f6e6c792067616d652061646d696e2063616e20706572666f726d207468697360008201527f20616374696f6e00000000000000000000000000000000000000000000000000602082015250565b6000612f40602783612507565b9150612f4b82612ee4565b604082019050919050565b60006020820190508181036000830152612f6f81612f33565b9050919050565b60008190508160005260206000209050919050565b60006020601f8301049050919050565b600082821b905092915050565b600060088302612fd87fffffffffffffffffffffffffffffffffffffffffffffffffffffffffffffffff82612f9b565b612fe28683612f9b565b95508019841693508086168417925050509392505050565b6000819050919050565b600061301f61301a613015846125ae565b612ffa565b6125ae565b9050919050565b6000819050919050565b61303983613004565b61304d61304582613026565b848454612fa8565b825550505050565b600090565b613062613055565b61306d818484613030565b505050565b5b818110156130915761308660008261305a565b600181019050613073565b5050565b601f8211156130d6576130a781612f76565b6130b084612f8b565b810160208510156130bf578190505b6130d36130cb85612f8b565b830182613072565b50505b505050565b600082821c905092915050565b60006130f9600019846008026130db565b1980831691505092915050565b600061311283836130e8565b9150826002028217905092915050565b61312b826124fc565b67ffffffffffffffff81111561314457613143612875565b5b61314e8254612c6b565b613159828285613095565b600060209050601f83116001811461318c576000841561317a578287015190505b6131848582613106565b8655506131ec565b601f19841661319a86612f76565b60005b828110156131c25784890151825560018201915060208501945060208101905061319d565b868310156131df57848901516131db601f8916826130e8565b8355505b6001600288020188555050505b505050505050565b7f455243373231456e756d657261626c653a20676c6f62616c20696e646578206f60008201527f7574206f6620626f756e64730000000000000000000000000000000000000000602082015250565b6000613250602c83612507565b915061325b826131f4565b604082019050919050565b6000602082019050818103600083015261327f81613243565b9050919050565b7f4e487b7100000000000000000000000000000000000000000000000000000000600052603260045260246000fd5b7f4552433732313a20696e76616c696420746f6b656e2049440000000000000000600082015250565b60006132eb601883612507565b91506132f6826132b5565b602082019050919050565b6000602082019050818103600083015261331a816132de565b9050919050565b7f4552433732313a2061646472657373207a65726f206973206e6f74206120766160008201527f6c6964206f776e65720000000000000000000000000000000000000000000000602082015250565b600061337d602983612507565b915061338882613321565b604082019050919050565b600060208201905081810360008301526133ac81613370565b9050919050565b600081905092915050565b60006133c9826124fc565b6133d381856133b3565b93506133e3818560208601612518565b80840191505092915050565b60006133fb82856133be565b915061340782846133be565b91508190509392505050565b7f4f776e61626c653a206e6577206f776e657220697320746865207a65726f206160008201527f6464726573730000000000000000000000000000000000000000000000000000602082015250565b600061346f602683612507565b915061347a82613413565b604082019050919050565b6000602082019050818103600083015261349e81613462565b9050919050565b7f4552433732313a207472616e736665722066726f6d20696e636f72726563742060008201527f6f776e6572000000000000000000000000000000000000000000000000000000602082015250565b6000613501602583612507565b915061350c826134a5565b604082019050919050565b60006020820190508181036000830152613530816134f4565b9050919050565b7f4552433732313a207472616e7366657220746f20746865207a65726f2061646460008201527f7265737300000000000000000000000000000000000000000000000000000000602082015250565b6000613593602483612507565b915061359e82613537565b604082019050919050565b600060208201905081810360008301526135c281613586565b9050919050565b7f4f776e61626c653a2063616c6c6572206973206e6f7420746865206f776e6572600082015250565b60006135ff602083612507565b915061360a826135c9565b602082019050919050565b6000602082019050818103600083015261362e816135f2565b9050919050565b7f4552433732313a20617070726f766520746f2063616c6c657200000000000000600082015250565b600061366b601983612507565b915061367682613635565b602082019050919050565b6000602082019050818103600083015261369a8161365e565b9050919050565b7f4552433732313a207472616e7366657220746f206e6f6e20455243373231526560008201527f63656976657220696d706c656d656e7465720000000000000000000000000000602082015250565b60006136fd603283612507565b9150613708826136a1565b604082019050919050565b6000602082019050818103600083015261372c816136f0565b9050919050565b7f4e487b7100000000000000000000000000000000000000000000000000000000600052601260045260246000fd5b7f455243373231456e756d657261626c653a20636f6e736563757469766520747260008201527f616e7366657273206e6f7420737570706f727465640000000000000000000000602082015250565b60006137be603583612507565b91506137c982613762565b604082019050919050565b600060208201905081810360008301526137ed816137b1565b9050919050565b600081519050919050565b600082825260208201905092915050565b600061381b826137f4565b61382581856137ff565b9350613835818560208601612518565b61383e81612542565b840191505092915050565b600060808201905061385e6000830187612643565b61386b6020830186612643565b61387860408301856126d9565b818103606083015261388a8184613810565b905095945050505050565b6000815190506138a48161246d565b92915050565b6000602082840312156138c0576138bf612437565b5b60006138ce84828501613895565b91505092915050565b7f4e487b7100000000000000000000000000000000000000000000000000000000600052601160045260246000fd5b6000613911826125ae565b915061391c836125ae565b9250828203905081811115613934576139336138d7565b5b92915050565b7f4e487b7100000000000000000000000000000000000000000000000000000000600052603160045260246000fd5b7f4552433732313a206d696e7420746f20746865207a65726f2061646472657373600082015250565b600061399f602083612507565b91506139aa82613969565b602082019050919050565b600060208201905081810360008301526139ce81613992565b9050919050565b7f4552433732313a20746f6b656e20616c7265616479206d696e74656400000000600082015250565b6000613a0b601c83612507565b9150613a16826139d5565b602082019050919050565b60006020820190508181036000830152613a3a816139fe565b905091905056fea26469706673582212201bf086ea9d89e292f2888aa8d6a4bde2bde0224fbd29388e7dbc8fe224263d2f64736f6c63430008110033",
    "linkReferences": {},
    "deployedLinkReferences": {}
}