{
    "_format": "hh-sol-artifact-1",
    "contractName": "TargetBlasterGame",
    "sourceName": "contracts/TargetBlasterGame.sol",
    "abi": [
        {
            "inputs": [
                {
                    "internalType": "address",
                    "name": "nftContractAddress",
                    "type": "address"
                },
                {
                    "internalType": "address",
                    "name": "statsContractAddress",
                    "type": "address"
                }
            ],
            "stateMutability": "nonpayable",
            "type": "constructor"
        },
        {
            "inputs": [
                {
                    "internalType": "address",
                    "name": "player",
                    "type": "address"
                },
                {
                    "internalType": "uint256",
                    "name": "sessionScore",
                    "type": "uint256"
                },
                {
                    "internalType": "uint256",
                    "name": "targetsHit",
                    "type": "uint256"
                },
                {
                    "internalType": "uint256",
                    "name": "randomSeed",
                    "type": "uint256"
                }
            ],
            "name": "endGameSession",
            "outputs": [],
            "stateMutability": "nonpayable",
            "type": "function"
        },
        {
            "inputs": [],
            "name": "minimumScoreForNFT",
            "outputs": [
                {
                    "internalType": "uint256",
                    "name": "",
                    "type": "uint256"
                }
            ],
            "stateMutability": "view",
            "type": "function"
        },
        {
            "inputs": [],
            "name": "nftContract",
            "outputs": [
                {
                    "internalType": "contract TargetBlasterNFT",
                    "name": "",
                    "type": "address"
                }
            ],
            "stateMutability": "view",
            "type": "function"
        },
        {
            "inputs": [],
            "name": "nftDropRate",
            "outputs": [
                {
                    "internalType": "uint256",
                    "name": "",
                    "type": "uint256"
                }
            ],
            "stateMutability": "view",
            "type": "function"
        },
        {
            "inputs": [
                {
                    "internalType": "uint256",
                    "name": "score",
                    "type": "uint256"
                }
            ],
            "name": "setMinimumScoreForNFT",
            "outputs": [],
            "stateMutability": "nonpayable",
            "type": "function"
        },
        {
            "inputs": [
                {
                    "internalType": "uint256",
                    "name": "rate",
                    "type": "uint256"
                }
            ],
            "name": "setNFTDropRate",
            "outputs": [],
            "stateMutability": "nonpayable",
            "type": "function"
        },
        {
            "inputs": [],
            "name": "statsContract",
            "outputs": [
                {
                    "internalType": "contract PlayerStats",
                    "name": "",
                    "type": "address"
                }
            ],
            "stateMutability": "view",
            "type": "function"
        }
    ],
    "bytecode": "0x6080604052600a6003556101f460045534801561001b57600080fd5b50604051610ce8380380610ce8833981810160405281019061003d9190610169565b816000806101000a81548173ffffffffffffffffffffffffffffffffffffffff021916908373ffffffffffffffffffffffffffffffffffffffff16021790555080600160006101000a81548173ffffffffffffffffffffffffffffffffffffffff021916908373ffffffffffffffffffffffffffffffffffffffff16021790555033600260006101000a81548173ffffffffffffffffffffffffffffffffffffffff021916908373ffffffffffffffffffffffffffffffffffffffff16021790555050506101a9565b600080fd5b600073ffffffffffffffffffffffffffffffffffffffff82169050919050565b60006101368261010b565b9050919050565b6101468161012b565b811461015157600080fd5b50565b6000815190506101638161013d565b92915050565b600080604083850312156101805761017f610106565b5b600061018e85828601610154565b925050602061019f85828601610154565b9150509250929050565b610b30806101b86000396000f3fe608060405234801561001057600080fd5b506004361061007d5760003560e01c806365c3605d1161005b57806365c3605d146100da5780636cb25604146100f6578063a5b83da514610112578063d56d229d146101305761007d565b80630bdc5279146100825780631bc909a5146100a05780633518edf2146100bc575b600080fd5b61008a61014e565b604051610097919061058f565b60405180910390f35b6100ba60048036038101906100b591906105db565b610154565b005b6100c46101ee565b6040516100d1919061058f565b60405180910390f35b6100f460048036038101906100ef9190610666565b6101f4565b005b610110600480360381019061010b91906105db565b61044e565b005b61011a61052c565b604051610127919061072c565b60405180910390f35b610138610552565b6040516101459190610768565b60405180910390f35b60035481565b600260009054906101000a900473ffffffffffffffffffffffffffffffffffffffff1673ffffffffffffffffffffffffffffffffffffffff163373ffffffffffffffffffffffffffffffffffffffff16146101e4576040517f08c379a00000000000000000000000000000000000000000000000000000000081526004016101db90610806565b60405180910390fd5b8060048190555050565b60045481565b600260009054906101000a900473ffffffffffffffffffffffffffffffffffffffff1673ffffffffffffffffffffffffffffffffffffffff163373ffffffffffffffffffffffffffffffffffffffff1614610284576040517f08c379a000000000000000000000000000000000000000000000000000000000815260040161027b90610806565b60405180910390fd5b600160009054906101000a900473ffffffffffffffffffffffffffffffffffffffff1673ffffffffffffffffffffffffffffffffffffffff1663460cd1ed8585856040518463ffffffff1660e01b81526004016102e393929190610835565b600060405180830381600087803b1580156102fd57600080fd5b505af1158015610311573d6000803e3d6000fd5b5050505060045483106104485760006064428360405160200161033592919061088d565b6040516020818303038152906040528051906020012060001c61035891906108e8565b90506003548110156104465760006107d0851061037857600390506103a3565b6105dc851061038a57600290506103a2565b6103e8851061039c57600190506103a1565b600090505b5b5b60008054906101000a900473ffffffffffffffffffffffffffffffffffffffff1673ffffffffffffffffffffffffffffffffffffffff16634ebe47c88783886040518463ffffffff1660e01b8152600401610400939291906109dc565b6020604051808303816000875af115801561041f573d6000803e3d6000fd5b505050506040513d601f19601f820116820180604052508101906104439190610a3b565b50505b505b50505050565b600260009054906101000a900473ffffffffffffffffffffffffffffffffffffffff1673ffffffffffffffffffffffffffffffffffffffff163373ffffffffffffffffffffffffffffffffffffffff16146104de576040517f08c379a00000000000000000000000000000000000000000000000000000000081526004016104d590610806565b60405180910390fd5b6064811115610522576040517f08c379a000000000000000000000000000000000000000000000000000000000815260040161051990610ada565b60405180910390fd5b8060038190555050565b600160009054906101000a900473ffffffffffffffffffffffffffffffffffffffff1681565b60008054906101000a900473ffffffffffffffffffffffffffffffffffffffff1681565b6000819050919050565b61058981610576565b82525050565b60006020820190506105a46000830184610580565b92915050565b600080fd5b6105b881610576565b81146105c357600080fd5b50565b6000813590506105d5816105af565b92915050565b6000602082840312156105f1576105f06105aa565b5b60006105ff848285016105c6565b91505092915050565b600073ffffffffffffffffffffffffffffffffffffffff82169050919050565b600061063382610608565b9050919050565b61064381610628565b811461064e57600080fd5b50565b6000813590506106608161063a565b92915050565b600080600080608085870312156106805761067f6105aa565b5b600061068e87828801610651565b945050602061069f878288016105c6565b93505060406106b0878288016105c6565b92505060606106c1878288016105c6565b91505092959194509250565b6000819050919050565b60006106f26106ed6106e884610608565b6106cd565b610608565b9050919050565b6000610704826106d7565b9050919050565b6000610716826106f9565b9050919050565b6107268161070b565b82525050565b6000602082019050610741600083018461071d565b92915050565b6000610752826106f9565b9050919050565b61076281610747565b82525050565b600060208201905061077d6000830184610759565b92915050565b600082825260208201905092915050565b7f4f6e6c79206f776e65722063616e20706572666f726d2074686973206163746960008201527f6f6e000000000000000000000000000000000000000000000000000000000000602082015250565b60006107f0602283610783565b91506107fb82610794565b604082019050919050565b6000602082019050818103600083015261081f816107e3565b9050919050565b61082f81610628565b82525050565b600060608201905061084a6000830186610826565b6108576020830185610580565b6108646040830184610580565b949350505050565b6000819050919050565b61088761088282610576565b61086c565b82525050565b60006108998285610876565b6020820191506108a98284610876565b6020820191508190509392505050565b7f4e487b7100000000000000000000000000000000000000000000000000000000600052601260045260246000fd5b60006108f382610576565b91506108fe83610576565b92508261090e5761090d6108b9565b5b828206905092915050565b7f4e487b7100000000000000000000000000000000000000000000000000000000600052602160045260246000fd5b6004811061095957610958610919565b5b50565b600081905061096a82610948565b919050565b600061097a8261095c565b9050919050565b61098a8161096f565b82525050565b7f5374616e64617264000000000000000000000000000000000000000000000000600082015250565b60006109c6600883610783565b91506109d182610990565b602082019050919050565b60006080820190506109f16000830186610826565b6109fe6020830185610981565b8181036040830152610a0f816109b9565b9050610a1e6060830184610580565b949350505050565b600081519050610a35816105af565b92915050565b600060208284031215610a5157610a506105aa565b5b6000610a5f84828501610a26565b91505092915050565b7f52617465206d75737420626520612070657263656e746167652028302d31303060008201527f2900000000000000000000000000000000000000000000000000000000000000602082015250565b6000610ac4602183610783565b9150610acf82610a68565b604082019050919050565b60006020820190508181036000830152610af381610ab7565b905091905056fea26469706673582212203f565f8a69eee32ded7597fcb42491f3ab63d5842f99beee855dd5e040d67ced64736f6c63430008110033",
    "linkReferences": {},
    "deployedLinkReferences": {}
}